{
  "contractName": "Certification",
  "abi": [
    {
      "inputs": [
        {
          "internalType": "contract Institution",
          "name": "_institution",
          "type": "address"
        }
      ],
      "payable": false,
      "stateMutability": "nonpayable",
      "type": "constructor"
    },
    {
      "anonymous": false,
      "inputs": [
        {
          "indexed": false,
          "internalType": "bytes32",
          "name": "_certificateId",
          "type": "bytes32"
        }
      ],
      "name": "certificateGenerated",
      "type": "event"
    },
    {
      "anonymous": false,
      "inputs": [
        {
          "indexed": false,
          "internalType": "bytes32",
          "name": "_certificateId",
          "type": "bytes32"
        }
      ],
      "name": "certificateRevoked",
      "type": "event"
    },
    {
      "constant": true,
      "inputs": [],
      "name": "institution",
      "outputs": [
        {
          "internalType": "contract Institution",
          "name": "",
          "type": "address"
        }
      ],
      "payable": false,
      "stateMutability": "view",
      "type": "function"
    },
    {
      "constant": true,
      "inputs": [],
      "name": "owner",
      "outputs": [
        {
          "internalType": "address",
          "name": "",
          "type": "address"
        }
      ],
      "payable": false,
      "stateMutability": "view",
      "type": "function"
    },
    {
      "constant": false,
      "inputs": [
        {
          "internalType": "string",
          "name": "_id",
          "type": "string"
        },
        {
          "internalType": "string",
          "name": "_candidate_name",
          "type": "string"
        },
        {
          "internalType": "string",
          "name": "_roll_no",
          "type": "string"
        },
        {
          "internalType": "uint256",
          "name": "_course_index",
          "type": "uint256"
        },
        {
          "internalType": "string",
          "name": "_creation_date",
          "type": "string"
        }
      ],
      "name": "generateCertificate",
      "outputs": [],
      "payable": false,
      "stateMutability": "nonpayable",
      "type": "function"
    },
    {
      "constant": true,
      "inputs": [
        {
          "internalType": "string",
          "name": "_id",
          "type": "string"
        }
      ],
      "name": "getData",
      "outputs": [
        {
          "internalType": "string",
          "name": "",
          "type": "string"
        },
        {
          "internalType": "string",
          "name": "",
          "type": "string"
        },
        {
          "internalType": "string",
          "name": "",
          "type": "string"
        },
        {
          "internalType": "string",
          "name": "",
          "type": "string"
        },
        {
          "internalType": "string",
          "name": "",
          "type": "string"
        },
        {
          "internalType": "string",
          "name": "",
          "type": "string"
        },
        {
          "internalType": "string",
          "name": "",
          "type": "string"
        },
        {
          "internalType": "bool",
          "name": "",
          "type": "bool"
        }
      ],
      "payable": false,
      "stateMutability": "view",
      "type": "function"
    },
    {
      "constant": false,
      "inputs": [
        {
          "internalType": "string",
          "name": "_id",
          "type": "string"
        }
      ],
      "name": "revokeCertificate",
      "outputs": [],
      "payable": false,
      "stateMutability": "nonpayable",
      "type": "function"
    }
  ],
  "bytecode": "0x60806040523480156200001157600080fd5b5060405162001a6f38038062001a6f8339818101604052620000379190810190620000d6565b336000806101000a81548173ffffffffffffffffffffffffffffffffffffffff021916908373ffffffffffffffffffffffffffffffffffffffff16021790555080600160006101000a81548173ffffffffffffffffffffffffffffffffffffffff021916908373ffffffffffffffffffffffffffffffffffffffff1602179055505062000164565b600081519050620000d0816200014a565b92915050565b600060208284031215620000e957600080fd5b6000620000f984828501620000bf565b91505092915050565b60006200010f826200012a565b9050919050565b6000620001238262000102565b9050919050565b600073ffffffffffffffffffffffffffffffffffffffff82169050919050565b620001558162000116565b81146200016157600080fd5b50565b6118fb80620001746000396000f3fe608060405234801561001057600080fd5b50600436106100575760003560e01c8063142e15421461005c5780638da5cb5b14610078578063ae55c88814610096578063d1384eb6146100cd578063d50e898d146100eb575b600080fd5b610076600480360361007191908101906111a2565b610107565b005b610080610368565b60405161008d9190611527565b60405180910390f35b6100b060048036036100ab91908101906111a2565b61038d565b6040516100c4989796959493929190611593565b60405180910390f35b6100d56109ab565b6040516100e29190611578565b60405180910390f35b610105600480360361010091908101906112a6565b6109d1565b005b60011515600160009054906101000a900473ffffffffffffffffffffffffffffffffffffffff1673ffffffffffffffffffffffffffffffffffffffff1663b350ce3c336040518263ffffffff1660e01b81526004016101669190611542565b60206040518083038186803b15801561017e57600080fd5b505afa158015610192573d6000803e3d6000fd5b505050506040513d601f19601f820116820180604052506101b69190810190611179565b1515146101f8576040517f08c379a00000000000000000000000000000000000000000000000000000000081526004016101ef90611642565b60405180910390fd5b600061020382610e78565b90506060600260008381526020019081526020016000206003018054600181600116156101000203166002900480601f0160208091040260200160405190810160405280929190818152602001828054600181600116156101000203166002900480156102b15780601f10610286576101008083540402835291602001916102b1565b820191906000526020600020905b81548152906001019060200180831161029457829003601f168201915b505050505090506000815114156102fd576040517f08c379a00000000000000000000000000000000000000000000000000000000081526004016102f490611682565b60405180910390fd5b60016002600084815260200190815260200160002060070160006101000a81548160ff0219169083151502179055507f222e6f0e7dd20e77993dc592413db91f20cfba6c1833b91ee72aeeb0c2dc99ec8260405161035b919061155d565b60405180910390a1505050565b6000809054906101000a900473ffffffffffffffffffffffffffffffffffffffff1681565b60608060608060608060606000806103a48a610e78565b90506103ae610ea3565b6002600083815260200190815260200160002060405180610100016040529081600082018054600181600116156101000203166002900480601f0160208091040260200160405190810160405280929190818152602001828054600181600116156101000203166002900480156104665780601f1061043b57610100808354040283529160200191610466565b820191906000526020600020905b81548152906001019060200180831161044957829003601f168201915b50505050508152602001600182018054600181600116156101000203166002900480601f0160208091040260200160405190810160405280929190818152602001828054600181600116156101000203166002900480156105085780601f106104dd57610100808354040283529160200191610508565b820191906000526020600020905b8154815290600101906020018083116104eb57829003601f168201915b50505050508152602001600282018054600181600116156101000203166002900480601f0160208091040260200160405190810160405280929190818152602001828054600181600116156101000203166002900480156105aa5780601f1061057f576101008083540402835291602001916105aa565b820191906000526020600020905b81548152906001019060200180831161058d57829003601f168201915b50505050508152602001600382018054600181600116156101000203166002900480601f01602080910402602001604051908101604052809291908181526020018280546001816001161561010002031660029004801561064c5780601f106106215761010080835404028352916020019161064c565b820191906000526020600020905b81548152906001019060200180831161062f57829003601f168201915b50505050508152602001600482018054600181600116156101000203166002900480601f0160208091040260200160405190810160405280929190818152602001828054600181600116156101000203166002900480156106ee5780601f106106c3576101008083540402835291602001916106ee565b820191906000526020600020905b8154815290600101906020018083116106d157829003601f168201915b50505050508152602001600582018054600181600116156101000203166002900480601f0160208091040260200160405190810160405280929190818152602001828054600181600116156101000203166002900480156107905780601f1061076557610100808354040283529160200191610790565b820191906000526020600020905b81548152906001019060200180831161077357829003601f168201915b50505050508152602001600682018054600181600116156101000203166002900480601f0160208091040260200160405190810160405280929190818152602001828054600181600116156101000203166002900480156108325780601f1061080757610100808354040283529160200191610832565b820191906000526020600020905b81548152906001019060200180831161081557829003601f168201915b505050505081526020016007820160009054906101000a900460ff16151515158152505090506060600260008481526020019081526020016000206003018054600181600116156101000203166002900480601f0160208091040260200160405190810160405280929190818152602001828054600181600116156101000203166002900480156109045780601f106108d957610100808354040283529160200191610904565b820191906000526020600020905b8154815290600101906020018083116108e757829003601f168201915b50505050509050600081511415610950576040517f08c379a000000000000000000000000000000000000000000000000000000000815260040161094790611682565b60405180910390fd5b816000015182604001518360200151846060015185608001518660a001518760c001518860e001518797508696508595508494508393508292508191509a509a509a509a509a509a509a509a50505050919395975091939597565b600160009054906101000a900473ffffffffffffffffffffffffffffffffffffffff1681565b60011515600160009054906101000a900473ffffffffffffffffffffffffffffffffffffffff1673ffffffffffffffffffffffffffffffffffffffff1663b350ce3c336040518263ffffffff1660e01b8152600401610a309190611542565b60206040518083038186803b158015610a4857600080fd5b505afa158015610a5c573d6000803e3d6000fd5b505050506040513d601f19601f82011682018060405250610a809190810190611179565b151514610ac2576040517f08c379a0000000000000000000000000000000000000000000000000000000008152600401610ab990611642565b60405180910390fd5b6000610acd86610e78565b90506060600260008381526020019081526020016000206003018054600181600116156101000203166002900480601f016020809104026020016040519081016040528092919081815260200182805460018160011615610100020316600290048015610b7b5780601f10610b5057610100808354040283529160200191610b7b565b820191906000526020600020905b815481529060010190602001808311610b5e57829003601f168201915b505050505090506000815114610bc6576040517f08c379a0000000000000000000000000000000000000000000000000000000008152600401610bbd90611662565b60405180910390fd5b606080606080600160009054906101000a900473ffffffffffffffffffffffffffffffffffffffff1673ffffffffffffffffffffffffffffffffffffffff16637c0edcdf336040518263ffffffff1660e01b8152600401610c279190611542565b60006040518083038186803b158015610c3f57600080fd5b505afa158015610c53573d6000803e3d6000fd5b505050506040513d6000823e3d601f19601f82011682018060405250610c7c91908101906111e3565b935093509350935060008810158015610c955750805188105b610cd4576040517f08c379a0000000000000000000000000000000000000000000000000000000008152600401610ccb906116a2565b60405180910390fd5b6060818981518110610ce257fe5b602002602001015160000151905060008090506040518061010001604052808d81526020018381526020018c81526020018a8152602001878152602001868152602001858152602001821515815250600260008a81526020019081526020016000206000820151816000019080519060200190610d60929190610eea565b506020820151816001019080519060200190610d7d929190610eea565b506040820151816002019080519060200190610d9a929190610eea565b506060820151816003019080519060200190610db7929190610eea565b506080820151816004019080519060200190610dd4929190610eea565b5060a0820151816005019080519060200190610df1929190610eea565b5060c0820151816006019080519060200190610e0e929190610eea565b5060e08201518160070160006101000a81548160ff0219169083151502179055509050507ff54e0f0055ffae318a21890316ed523f8a60aa59aaa279dfdcae7176155ec0db88604051610e61919061155d565b60405180910390a150505050505050505050505050565b60006060829050600081511415610e95576000801b915050610e9e565b60208301519150505b919050565b604051806101000160405280606081526020016060815260200160608152602001606081526020016060815260200160608152602001606081526020016000151581525090565b828054600181600116156101000203166002900490600052602060002090601f016020900481019282601f10610f2b57805160ff1916838001178555610f59565b82800160010185558215610f59579182015b82811115610f58578251825591602001919060010190610f3d565b5b509050610f669190610f6a565b5090565b610f8c91905b80821115610f88576000816000905550600101610f70565b5090565b90565b600082601f830112610fa057600080fd5b8151610fb3610fae826116ef565b6116c2565b9150818183526020840193506020810190508360005b83811015610ff95781518601610fdf8882611114565b845260208401935060208301925050600181019050610fc9565b5050505092915050565b6000815190506110128161188a565b92915050565b600082601f83011261102957600080fd5b815161103c61103782611717565b6116c2565b9150808252602083016020830185838301111561105857600080fd5b611063838284611846565b50505092915050565b600082601f83011261107d57600080fd5b813561109061108b82611743565b6116c2565b915080825260208301602083018583830111156110ac57600080fd5b6110b7838284611837565b50505092915050565b600082601f8301126110d157600080fd5b81516110e46110df82611743565b6116c2565b9150808252602083016020830185838301111561110057600080fd5b61110b838284611846565b50505092915050565b60006020828403121561112657600080fd5b61113060206116c2565b9050600082015167ffffffffffffffff81111561114c57600080fd5b61115884828501611018565b60008301525092915050565b600081359050611173816118a1565b92915050565b60006020828403121561118b57600080fd5b600061119984828501611003565b91505092915050565b6000602082840312156111b457600080fd5b600082013567ffffffffffffffff8111156111ce57600080fd5b6111da8482850161106c565b91505092915050565b600080600080608085870312156111f957600080fd5b600085015167ffffffffffffffff81111561121357600080fd5b61121f878288016110c0565b945050602085015167ffffffffffffffff81111561123c57600080fd5b611248878288016110c0565b935050604085015167ffffffffffffffff81111561126557600080fd5b611271878288016110c0565b925050606085015167ffffffffffffffff81111561128e57600080fd5b61129a87828801610f8f565b91505092959194509250565b600080600080600060a086880312156112be57600080fd5b600086013567ffffffffffffffff8111156112d857600080fd5b6112e48882890161106c565b955050602086013567ffffffffffffffff81111561130157600080fd5b61130d8882890161106c565b945050604086013567ffffffffffffffff81111561132a57600080fd5b6113368882890161106c565b935050606061134788828901611164565b925050608086013567ffffffffffffffff81111561136457600080fd5b6113708882890161106c565b9150509295509295909350565b611386816117dd565b82525050565b6113958161178b565b82525050565b6113a48161179d565b82525050565b6113b3816117a9565b82525050565b6113c2816117ef565b82525050565b60006113d38261176f565b6113dd818561177a565b93506113ed818560208601611846565b6113f681611879565b840191505092915050565b600061140e60208361177a565b91507f496e73746974757465206163636f756e7420646f6573206e6f742065786973746000830152602082019050919050565b600061144e60288361177a565b91507f4365727469666963617465207769746820676976656e20696420616c7265616460008301527f79206578697374730000000000000000000000000000000000000000000000006020830152604082019050919050565b60006114b4601d8361177a565b91507f436572746966696361746520696420646f6573206e6f742065786973740000006000830152602082019050919050565b60006114f460148361177a565b91507f496e76616c696420436f7572736520696e6465780000000000000000000000006000830152602082019050919050565b600060208201905061153c600083018461138c565b92915050565b6000602082019050611557600083018461137d565b92915050565b600060208201905061157260008301846113aa565b92915050565b600060208201905061158d60008301846113b9565b92915050565b60006101008201905081810360008301526115ae818b6113c8565b905081810360208301526115c2818a6113c8565b905081810360408301526115d681896113c8565b905081810360608301526115ea81886113c8565b905081810360808301526115fe81876113c8565b905081810360a083015261161281866113c8565b905081810360c083015261162681856113c8565b905061163560e083018461139b565b9998505050505050505050565b6000602082019050818103600083015261165b81611401565b9050919050565b6000602082019050818103600083015261167b81611441565b9050919050565b6000602082019050818103600083015261169b816114a7565b9050919050565b600060208201905081810360008301526116bb816114e7565b9050919050565b6000604051905081810181811067ffffffffffffffff821117156116e557600080fd5b8060405250919050565b600067ffffffffffffffff82111561170657600080fd5b602082029050602081019050919050565b600067ffffffffffffffff82111561172e57600080fd5b601f19601f8301169050602081019050919050565b600067ffffffffffffffff82111561175a57600080fd5b601f19601f8301169050602081019050919050565b600081519050919050565b600082825260208201905092915050565b6000611796826117b3565b9050919050565b60008115159050919050565b6000819050919050565b600073ffffffffffffffffffffffffffffffffffffffff82169050919050565b6000819050919050565b60006117e882611813565b9050919050565b60006117fa82611801565b9050919050565b600061180c826117b3565b9050919050565b600061181e82611825565b9050919050565b6000611830826117b3565b9050919050565b82818337600083830152505050565b60005b83811015611864578082015181840152602081019050611849565b83811115611873576000848401525b50505050565b6000601f19601f8301169050919050565b6118938161179d565b811461189e57600080fd5b50565b6118aa816117d3565b81146118b557600080fd5b5056fea365627a7a72315820a2e18a1f1fe917cd80cff960a28b8f260433fe463ff71838fabc202b2253c0be6c6578706572696d656e74616cf564736f6c63430005100040",
  "source": "pragma solidity ^0.5.0;\r\npragma experimental ABIEncoderV2;\r\n\r\nimport \"./Institution.sol\";\r\n\r\ncontract Certification {\r\n    // State Variables\r\n    address public owner;\r\n    Institution public institution;\r\n\r\n    // Mappings\r\n    mapping(bytes32 => Certificate) private certificates;\r\n\r\n    // Events\r\n    event certificateGenerated(bytes32 _certificateId);\r\n    event certificateRevoked(bytes32 _certificateId);\r\n\r\n    constructor(Institution _institution) public {\r\n        owner = msg.sender;\r\n        institution = _institution;\r\n    }\r\n\r\n    struct Certificate {\r\n        // Individual Info\r\n        string candidate_name;\r\n        string roll_no; // soumyabaheti\r\n        string course_name;\r\n        string creation_date;\r\n\r\n        // Institute Info\r\n        string institute_name;\r\n        string institute_acronym;\r\n        string institute_link;\r\n\r\n        // Revocation status\r\n        bool revoked;\r\n    }\r\n\r\n    function stringToBytes32(string memory source) private pure returns (bytes32 result) {\r\n        bytes memory tempEmptyStringTest = bytes(source);\r\n        if (tempEmptyStringTest.length == 0) {\r\n            return 0x0;\r\n        }\r\n        assembly {\r\n                result := mload(add(source, 32))\r\n        }\r\n    }\r\n\r\n    function generateCertificate(\r\n        string memory _id,\r\n        string memory _candidate_name,\r\n        string memory _roll_no, //soumyabaheti\r\n        uint256 _course_index, \r\n        string memory _creation_date) public {\r\n        require(institution.checkInstitutePermission(msg.sender) == true, \"Institute account does not exist\");\r\n        bytes32 byte_id = stringToBytes32(_id);\r\n        // require(certificates[byte_id].creation_date == 0, \"Certificate with given id already exists\");\r\n        bytes memory tempEmptyStringNameTest = bytes(\r\n            certificates[byte_id].creation_date\r\n        );\r\n        require(\r\n            tempEmptyStringNameTest.length == 0,\r\n            \"Certificate with given id already exists\"\r\n        );\r\n        (string memory _institute_name, string memory _institute_acronym, string memory _institute_link, Institution.Course[] memory _institute_courses) = institution.getInstituteData(msg.sender);\r\n        require(_course_index >= 0 && _course_index < _institute_courses.length, \"Invalid Course index\");\r\n        string memory _course_name = _institute_courses[_course_index].course_name;\r\n        bool revocation_status = false;\r\n        certificates[byte_id] = Certificate(_candidate_name, _course_name, _roll_no , _creation_date, _institute_name, _institute_acronym, _institute_link, revocation_status);//soumyabaheti\r\n        emit certificateGenerated(byte_id);\r\n    }\r\n\r\n    function getData(string memory _id) public view returns(string memory, string memory, string memory,string memory, string memory, string memory, string memory, bool) { //soumyabaheti\r\n        bytes32 byte_id = stringToBytes32(_id);\r\n        Certificate memory temp = certificates[byte_id];\r\n        // require(certificates[byte_id].creation_date != 0, \"Certificate id does not exist!\");\r\n        bytes memory tempEmptyStringNameTest = bytes(\r\n            certificates[byte_id].creation_date\r\n        );\r\n        require(\r\n            tempEmptyStringNameTest.length != 0,\r\n            \"Certificate id does not exist\"\r\n        );\r\n        return (temp.candidate_name, temp.course_name, temp.roll_no, temp.creation_date, temp.institute_name, temp.institute_acronym, temp.institute_link, temp.revoked); //soumyabaheti\r\n    }\r\n\r\n    function revokeCertificate(string memory _id) public {\r\n        require(institution.checkInstitutePermission(msg.sender) == true, \"Institute account does not exist\");\r\n        bytes32 byte_id = stringToBytes32(_id);\r\n        bytes memory tempEmptyStringNameTest = bytes(\r\n            certificates[byte_id].creation_date\r\n        );\r\n        require(\r\n            tempEmptyStringNameTest.length != 0,\r\n            \"Certificate id does not exist\"\r\n        );\r\n        certificates[byte_id].revoked = true;\r\n        emit certificateRevoked(byte_id);\r\n    }\r\n}",
  "sourcePath": "C:\\Backup\\w11\\webd\\IIITL-Certificates\\contracts\\Certification.sol",
  "compiler": {
    "name": "solc",
    "version": "0.5.16+commit.9c3226ce.Emscripten.clang"
  },
  "schemaVersion": "3.4.13",
  "updatedAt": "2023-04-18T16:16:35.594Z",
  "networkType": "ethereum",
  "devdoc": {
    "methods": {}
  },
  "userdoc": {
    "methods": {}
  }
}