{
  "contractName": "Institution",
  "abi": [
    {
      "inputs": [],
      "payable": false,
      "stateMutability": "nonpayable",
      "type": "constructor"
    },
    {
      "anonymous": false,
      "inputs": [
        {
          "indexed": false,
          "internalType": "string",
          "name": "_instituteName",
          "type": "string"
        }
      ],
      "name": "instituteAdded",
      "type": "event"
    },
    {
      "constant": true,
      "inputs": [],
      "name": "owner",
      "outputs": [
        {
          "internalType": "address",
          "name": "",
          "type": "address"
        }
      ],
      "payable": false,
      "stateMutability": "view",
      "type": "function"
    },
    {
      "constant": false,
      "inputs": [
        {
          "internalType": "address",
          "name": "_address",
          "type": "address"
        },
        {
          "internalType": "string",
          "name": "_institute_name",
          "type": "string"
        },
        {
          "internalType": "string",
          "name": "_institute_acronym",
          "type": "string"
        },
        {
          "internalType": "string",
          "name": "_institute_link",
          "type": "string"
        },
        {
          "components": [
            {
              "internalType": "string",
              "name": "course_name",
              "type": "string"
            }
          ],
          "internalType": "struct Institution.Course[]",
          "name": "_institute_courses",
          "type": "tuple[]"
        }
      ],
      "name": "addInstitute",
      "outputs": [
        {
          "internalType": "bool",
          "name": "",
          "type": "bool"
        }
      ],
      "payable": false,
      "stateMutability": "nonpayable",
      "type": "function"
    },
    {
      "constant": true,
      "inputs": [],
      "name": "getInstituteData",
      "outputs": [
        {
          "internalType": "string",
          "name": "",
          "type": "string"
        },
        {
          "internalType": "string",
          "name": "",
          "type": "string"
        },
        {
          "internalType": "string",
          "name": "",
          "type": "string"
        },
        {
          "components": [
            {
              "internalType": "string",
              "name": "course_name",
              "type": "string"
            }
          ],
          "internalType": "struct Institution.Course[]",
          "name": "",
          "type": "tuple[]"
        }
      ],
      "payable": false,
      "stateMutability": "view",
      "type": "function"
    },
    {
      "constant": true,
      "inputs": [
        {
          "internalType": "address",
          "name": "_address",
          "type": "address"
        }
      ],
      "name": "getInstituteData",
      "outputs": [
        {
          "internalType": "string",
          "name": "",
          "type": "string"
        },
        {
          "internalType": "string",
          "name": "",
          "type": "string"
        },
        {
          "internalType": "string",
          "name": "",
          "type": "string"
        },
        {
          "components": [
            {
              "internalType": "string",
              "name": "course_name",
              "type": "string"
            }
          ],
          "internalType": "struct Institution.Course[]",
          "name": "",
          "type": "tuple[]"
        }
      ],
      "payable": false,
      "stateMutability": "view",
      "type": "function"
    },
    {
      "constant": true,
      "inputs": [
        {
          "internalType": "address",
          "name": "_address",
          "type": "address"
        }
      ],
      "name": "checkInstitutePermission",
      "outputs": [
        {
          "internalType": "bool",
          "name": "",
          "type": "bool"
        }
      ],
      "payable": false,
      "stateMutability": "view",
      "type": "function"
    }
  ],
  "bytecode": "0x608060405234801561001057600080fd5b50336000806101000a81548173ffffffffffffffffffffffffffffffffffffffff021916908373ffffffffffffffffffffffffffffffffffffffff160217905550611aa2806100606000396000f3fe608060405234801561001057600080fd5b50600436106100575760003560e01c80630334917c1461005c578063086f5a141461008c5780637c0edcdf146100ad5780638da5cb5b146100e0578063b350ce3c146100fe575b600080fd5b610076600480360361007191908101906112ee565b61012e565b604051610083919061173b565b60405180910390f35b6100946104d2565b6040516100a49493929190611778565b60405180910390f35b6100c760048036036100c2919081019061129c565b6108bd565b6040516100d79493929190611778565b60405180910390f35b6100e8610db5565b6040516100f59190611720565b60405180910390f35b6101186004803603610113919081019061129c565b610dda565b604051610125919061173b565b60405180910390f35b60008060009054906101000a900473ffffffffffffffffffffffffffffffffffffffff1673ffffffffffffffffffffffffffffffffffffffff163373ffffffffffffffffffffffffffffffffffffffff16146101bf576040517f08c379a00000000000000000000000000000000000000000000000000000000081526004016101b690611819565b60405180910390fd5b6060600160008873ffffffffffffffffffffffffffffffffffffffff1673ffffffffffffffffffffffffffffffffffffffff1681526020019081526020016000206000018054600181600116156101000203166002900480601f0160208091040260200160405190810160405280929190818152602001828054600181600116156101000203166002900480156102975780601f1061026c57610100808354040283529160200191610297565b820191906000526020600020905b81548152906001019060200180831161027a57829003601f168201915b5050505050905060008151146102e2576040517f08c379a00000000000000000000000000000000000000000000000000000000081526004016102d9906117d9565b60405180910390fd5b6000835111610326576040517f08c379a000000000000000000000000000000000000000000000000000000000815260040161031d906117f9565b60405180910390fd5b604051806060016040528087815260200186815260200185815250600160008973ffffffffffffffffffffffffffffffffffffffff1673ffffffffffffffffffffffffffffffffffffffff168152602001908152602001600020600082015181600001908051906020019061039c929190611040565b5060208201518160010190805190602001906103b9929190611040565b5060408201518160020190805190602001906103d6929190611040565b5090505060008090505b835181101561049057600260008973ffffffffffffffffffffffffffffffffffffffff1673ffffffffffffffffffffffffffffffffffffffff16815260200190815260200160002084828151811061043457fe5b6020026020010151908060018154018082558091505090600182039060005260206000200160009091929091909150600082015181600001908051906020019061047f929190611040565b5050505080806001019150506103e0565b507fcc7604fcd5c45ed3c7605e263d6c59f75739c368ef78098126fa9f54443b314f866040516104c09190611756565b60405180910390a15095945050505050565b6060806060806104e06110c0565b600160003373ffffffffffffffffffffffffffffffffffffffff1673ffffffffffffffffffffffffffffffffffffffff168152602001908152602001600020604051806060016040529081600082018054600181600116156101000203166002900480601f0160208091040260200160405190810160405280929190818152602001828054600181600116156101000203166002900480156105c35780601f10610598576101008083540402835291602001916105c3565b820191906000526020600020905b8154815290600101906020018083116105a657829003601f168201915b50505050508152602001600182018054600181600116156101000203166002900480601f0160208091040260200160405190810160405280929190818152602001828054600181600116156101000203166002900480156106655780601f1061063a57610100808354040283529160200191610665565b820191906000526020600020905b81548152906001019060200180831161064857829003601f168201915b50505050508152602001600282018054600181600116156101000203166002900480601f0160208091040260200160405190810160405280929190818152602001828054600181600116156101000203166002900480156107075780601f106106dc57610100808354040283529160200191610707565b820191906000526020600020905b8154815290600101906020018083116106ea57829003601f168201915b5050505050815250509050606081600001519050600081511161075f576040517f08c379a000000000000000000000000000000000000000000000000000000000815260040161075690611839565b60405180910390fd5b816000015182602001518360400151600260003373ffffffffffffffffffffffffffffffffffffffff1673ffffffffffffffffffffffffffffffffffffffff16815260200190815260200160002083935082925081915080805480602002602001604051908101604052809291908181526020016000905b828210156108a757838290600052602060002001604051806020016040529081600082018054600181600116156101000203166002900480601f01602080910402602001604051908101604052809291908181526020018280546001816001161561010002031660029004801561088f5780601f106108645761010080835404028352916020019161088f565b820191906000526020600020905b81548152906001019060200180831161087257829003601f168201915b505050505081525050815260200190600101906107d7565b5050505090509550955095509550505090919293565b6060806060806000809054906101000a900473ffffffffffffffffffffffffffffffffffffffff1673ffffffffffffffffffffffffffffffffffffffff163373ffffffffffffffffffffffffffffffffffffffff16638da5cb5b6040518163ffffffff1660e01b815260040160206040518083038186803b15801561094157600080fd5b505afa158015610955573d6000803e3d6000fd5b505050506040513d601f19601f8201168201806040525061097991908101906112c5565b73ffffffffffffffffffffffffffffffffffffffff16146109cf576040517f08c379a00000000000000000000000000000000000000000000000000000000081526004016109c690611859565b60405180910390fd5b6109d76110c0565b600160008773ffffffffffffffffffffffffffffffffffffffff1673ffffffffffffffffffffffffffffffffffffffff168152602001908152602001600020604051806060016040529081600082018054600181600116156101000203166002900480601f016020809104026020016040519081016040528092919081815260200182805460018160011615610100020316600290048015610aba5780601f10610a8f57610100808354040283529160200191610aba565b820191906000526020600020905b815481529060010190602001808311610a9d57829003601f168201915b50505050508152602001600182018054600181600116156101000203166002900480601f016020809104026020016040519081016040528092919081815260200182805460018160011615610100020316600290048015610b5c5780601f10610b3157610100808354040283529160200191610b5c565b820191906000526020600020905b815481529060010190602001808311610b3f57829003601f168201915b50505050508152602001600282018054600181600116156101000203166002900480601f016020809104026020016040519081016040528092919081815260200182805460018160011615610100020316600290048015610bfe5780601f10610bd357610100808354040283529160200191610bfe565b820191906000526020600020905b815481529060010190602001808311610be157829003601f168201915b50505050508152505090506060816000015190506000815111610c56576040517f08c379a0000000000000000000000000000000000000000000000000000000008152600401610c4d90611879565b60405180910390fd5b816000015182602001518360400151600260008b73ffffffffffffffffffffffffffffffffffffffff1673ffffffffffffffffffffffffffffffffffffffff16815260200190815260200160002083935082925081915080805480602002602001604051908101604052809291908181526020016000905b82821015610d9e57838290600052602060002001604051806020016040529081600082018054600181600116156101000203166002900480601f016020809104026020016040519081016040528092919081815260200182805460018160011615610100020316600290048015610d865780601f10610d5b57610100808354040283529160200191610d86565b820191906000526020600020905b815481529060010190602001808311610d6957829003601f168201915b50505050508152505081526020019060010190610cce565b505050509050955095509550955050509193509193565b6000809054906101000a900473ffffffffffffffffffffffffffffffffffffffff1681565b6000610de46110c0565b600160008473ffffffffffffffffffffffffffffffffffffffff1673ffffffffffffffffffffffffffffffffffffffff168152602001908152602001600020604051806060016040529081600082018054600181600116156101000203166002900480601f016020809104026020016040519081016040528092919081815260200182805460018160011615610100020316600290048015610ec75780601f10610e9c57610100808354040283529160200191610ec7565b820191906000526020600020905b815481529060010190602001808311610eaa57829003601f168201915b50505050508152602001600182018054600181600116156101000203166002900480601f016020809104026020016040519081016040528092919081815260200182805460018160011615610100020316600290048015610f695780601f10610f3e57610100808354040283529160200191610f69565b820191906000526020600020905b815481529060010190602001808311610f4c57829003601f168201915b50505050508152602001600282018054600181600116156101000203166002900480601f01602080910402602001604051908101604052809291908181526020018280546001816001161561010002031660029004801561100b5780601f10610fe05761010080835404028352916020019161100b565b820191906000526020600020905b815481529060010190602001808311610fee57829003601f168201915b50505050508152505090506060816000015190506000815111156110345760019250505061103b565b6000925050505b919050565b828054600181600116156101000203166002900490600052602060002090601f016020900481019282601f1061108157805160ff19168380011785556110af565b828001600101855582156110af579182015b828111156110ae578251825591602001919060010190611093565b5b5090506110bc91906110e1565b5090565b60405180606001604052806060815260200160608152602001606081525090565b61110391905b808211156110ff5760008160009055506001016110e7565b5090565b90565b60008135905061111581611a48565b92915050565b60008151905061112a81611a48565b92915050565b600082601f83011261114157600080fd5b813561115461114f826118c6565b611899565b9150818183526020840193506020810190508360005b8381101561119a5781358601611180888261124c565b84526020840193506020830192505060018101905061116a565b5050505092915050565b600082601f8301126111b557600080fd5b81356111c86111c3826118ee565b611899565b915080825260208301602083018583830111156111e457600080fd5b6111ef8382846119f5565b50505092915050565b600082601f83011261120957600080fd5b813561121c6112178261191a565b611899565b9150808252602083016020830185838301111561123857600080fd5b6112438382846119f5565b50505092915050565b60006020828403121561125e57600080fd5b6112686020611899565b9050600082013567ffffffffffffffff81111561128457600080fd5b611290848285016111a4565b60008301525092915050565b6000602082840312156112ae57600080fd5b60006112bc84828501611106565b91505092915050565b6000602082840312156112d757600080fd5b60006112e58482850161111b565b91505092915050565b600080600080600060a0868803121561130657600080fd5b600061131488828901611106565b955050602086013567ffffffffffffffff81111561133157600080fd5b61133d888289016111f8565b945050604086013567ffffffffffffffff81111561135a57600080fd5b611366888289016111f8565b935050606086013567ffffffffffffffff81111561138357600080fd5b61138f888289016111f8565b925050608086013567ffffffffffffffff8111156113ac57600080fd5b6113b888828901611130565b9150509295509295909350565b60006113d183836116f6565b905092915050565b6113e2816119b7565b82525050565b60006113f382611956565b6113fd8185611984565b93508360208202850161140f85611946565b8060005b8581101561144b578484038952815161142c85826113c5565b945061143783611977565b925060208a01995050600181019050611413565b50829750879550505050505092915050565b611466816119c9565b82525050565b60006114778261196c565b61148181856119a6565b9350611491818560208601611a04565b61149a81611a37565b840191505092915050565b60006114b082611961565b6114ba8185611995565b93506114ca818560208601611a04565b6114d381611a37565b840191505092915050565b60006114eb6023836119a6565b91507f496e73746974757465207769746820746f6b656e20616c72656164792065786960008301527f73747300000000000000000000000000000000000000000000000000000000006020830152604082019050919050565b60006115516020836119a6565b91507f41746c65617374206f6e6520636f75727365206d7573742062652061646465646000830152602082019050919050565b6000611591603a836119a6565b91507f43616c6c6572206d75737420626520746865206f776e6572202d206f6e6c792060008301527f6f776e65722063616e2061646420616e20696e737469747574650000000000006020830152604082019050919050565b60006115f76021836119a6565b91507f496e73746974757465206163636f756e7420646f6573206e6f7420657869737460008301527f21000000000000000000000000000000000000000000000000000000000000006020830152604082019050919050565b600061165d602a836119a6565b91507f496e636f727265637420736d61727420636f6e7472616374202620617574686f60008301527f72697a6174696f6e7321000000000000000000000000000000000000000000006020830152604082019050919050565b60006116c36019836119a6565b91507f496e7374697475746520646f6573206e6f7420657869737421000000000000006000830152602082019050919050565b6000602083016000830151848203600086015261171382826114a5565b9150508091505092915050565b600060208201905061173560008301846113d9565b92915050565b6000602082019050611750600083018461145d565b92915050565b60006020820190508181036000830152611770818461146c565b905092915050565b60006080820190508181036000830152611792818761146c565b905081810360208301526117a6818661146c565b905081810360408301526117ba818561146c565b905081810360608301526117ce81846113e8565b905095945050505050565b600060208201905081810360008301526117f2816114de565b9050919050565b6000602082019050818103600083015261181281611544565b9050919050565b6000602082019050818103600083015261183281611584565b9050919050565b60006020820190508181036000830152611852816115ea565b9050919050565b6000602082019050818103600083015261187281611650565b9050919050565b60006020820190508181036000830152611892816116b6565b9050919050565b6000604051905081810181811067ffffffffffffffff821117156118bc57600080fd5b8060405250919050565b600067ffffffffffffffff8211156118dd57600080fd5b602082029050602081019050919050565b600067ffffffffffffffff82111561190557600080fd5b601f19601f8301169050602081019050919050565b600067ffffffffffffffff82111561193157600080fd5b601f19601f8301169050602081019050919050565b6000819050602082019050919050565b600081519050919050565b600081519050919050565b600081519050919050565b6000602082019050919050565b600082825260208201905092915050565b600082825260208201905092915050565b600082825260208201905092915050565b60006119c2826119d5565b9050919050565b60008115159050919050565b600073ffffffffffffffffffffffffffffffffffffffff82169050919050565b82818337600083830152505050565b60005b83811015611a22578082015181840152602081019050611a07565b83811115611a31576000848401525b50505050565b6000601f19601f8301169050919050565b611a51816119b7565b8114611a5c57600080fd5b5056fea365627a7a723158200dedae513bb5937d0c2cdf4c9cf6fd618742c2881db89624534f8751d5a90f9d6c6578706572696d656e74616cf564736f6c63430005100040",
  "source": "pragma solidity ^0.5.0;\r\npragma experimental ABIEncoderV2;\r\n\r\nimport \"./Certification.sol\";\r\n\r\ncontract Institution {\r\n    // State Variables\r\n    address public owner;\r\n\r\n    // Mappings\r\n    mapping(address => Institute) private institutes; // Institutes Mapping\r\n    mapping(address => Course[]) private instituteCourses; // Courses Mapping\r\n\r\n    // Events\r\n    event instituteAdded(string _instituteName);\r\n\r\n    constructor() public {\r\n        owner = msg.sender;\r\n    }\r\n\r\n    struct Course {\r\n        string course_name;\r\n        // Other attributes can be added\r\n    }\r\n\r\n    struct Institute {\r\n        string institute_name;\r\n        string institute_acronym;\r\n        string institute_link;\r\n    }\r\n\r\n    function stringToBytes32(string memory source)\r\n        private\r\n        pure\r\n        returns (bytes32 result)\r\n    {\r\n        bytes memory tempEmptyStringTest = bytes(source);\r\n        if (tempEmptyStringTest.length == 0) {\r\n            return 0x0;\r\n        }\r\n        assembly {\r\n            result := mload(add(source, 32))\r\n        }\r\n    }\r\n\r\n    function addInstitute(\r\n        address _address,\r\n        string memory _institute_name,\r\n        string memory _institute_acronym,\r\n        string memory _institute_link,\r\n        Course[] memory _institute_courses\r\n    ) public returns (bool) {\r\n        // Only owner can add institute\r\n        require(\r\n            msg.sender == owner,\r\n            \"Caller must be the owner - only owner can add an institute\"\r\n        );\r\n        bytes memory tempEmptyStringNameTest = bytes(\r\n            institutes[_address].institute_name\r\n        );\r\n        require(\r\n            tempEmptyStringNameTest.length == 0,\r\n            \"Institute with token already exists\"\r\n        );\r\n        require(\r\n            _institute_courses.length > 0,\r\n            \"Atleast one course must be added\"\r\n        );\r\n        institutes[_address] = Institute(\r\n            _institute_name,\r\n            _institute_acronym,\r\n            _institute_link\r\n        );\r\n        for (uint256 i = 0; i < _institute_courses.length; i++) {\r\n            instituteCourses[_address].push(_institute_courses[i]);\r\n        }\r\n        emit instituteAdded(_institute_name);\r\n    }\r\n\r\n    // Called by Institutions\r\n    function getInstituteData()\r\n        public\r\n        view\r\n        returns (\r\n            string memory,\r\n            string memory,\r\n            string memory,\r\n            Course[] memory\r\n        )\r\n    {\r\n        Institute memory temp = institutes[msg.sender];\r\n        bytes memory tempEmptyStringNameTest = bytes(temp.institute_name);\r\n        require(\r\n            tempEmptyStringNameTest.length > 0,\r\n            \"Institute account does not exist!\"\r\n        );\r\n        return (\r\n            temp.institute_name,\r\n            temp.institute_acronym,\r\n            temp.institute_link,\r\n            instituteCourses[msg.sender]\r\n        );\r\n    }\r\n\r\n    // Called by Smart Contracts\r\n    function getInstituteData(address _address)\r\n        public\r\n        view\r\n        returns (\r\n            string memory,\r\n            string memory,\r\n            string memory,\r\n            Course[] memory\r\n        )\r\n    {\r\n        require(Certification(msg.sender).owner() == owner, \"Incorrect smart contract & authorizations!\");\r\n        Institute memory temp = institutes[_address];\r\n        bytes memory tempEmptyStringNameTest = bytes(temp.institute_name);\r\n        require(\r\n            tempEmptyStringNameTest.length > 0,\r\n            \"Institute does not exist!\"\r\n        );\r\n        return (\r\n            temp.institute_name,\r\n            temp.institute_acronym,\r\n            temp.institute_link,\r\n            instituteCourses[_address]\r\n        );\r\n    }\r\n\r\n    function checkInstitutePermission(address _address)\r\n        public\r\n        view\r\n        returns (bool)\r\n    {\r\n        Institute memory temp = institutes[_address];\r\n        bytes memory tempEmptyStringNameTest = bytes(temp.institute_name);\r\n        if (tempEmptyStringNameTest.length > 0) {\r\n            return true;\r\n        } else {\r\n            return false;\r\n        }\r\n    }\r\n}\r\n",
  "sourcePath": "C:\\Backup\\w11\\webd\\IIITL-Certificates\\contracts\\Institution.sol",
  "compiler": {
    "name": "solc",
    "version": "0.5.16+commit.9c3226ce.Emscripten.clang"
  },
  "schemaVersion": "3.4.13",
  "updatedAt": "2023-04-18T16:16:35.598Z",
  "networkType": "ethereum",
  "devdoc": {
    "methods": {}
  },
  "userdoc": {
    "methods": {}
  }
}